{
  "contractName": "Auction",
  "abi": [
    {
      "inputs": [
        {
          "internalType": "address",
          "name": "_nft",
          "type": "address"
        },
        {
          "internalType": "uint256",
          "name": "_nftId",
          "type": "uint256"
        },
        {
          "internalType": "uint256",
          "name": "_startingBid",
          "type": "uint256"
        },
        {
          "internalType": "uint256",
          "name": "_biddingTime",
          "type": "uint256"
        }
      ],
      "stateMutability": "nonpayable",
      "type": "constructor"
    },
    {
      "anonymous": false,
      "inputs": [
        {
          "indexed": true,
          "internalType": "address",
          "name": "sender",
          "type": "address"
        },
        {
          "indexed": false,
          "internalType": "uint256",
          "name": "amount",
          "type": "uint256"
        }
      ],
      "name": "Bid",
      "type": "event"
    },
    {
      "anonymous": false,
      "inputs": [
        {
          "indexed": false,
          "internalType": "address",
          "name": "highestBidder",
          "type": "address"
        },
        {
          "indexed": false,
          "internalType": "uint256",
          "name": "highestBid",
          "type": "uint256"
        }
      ],
      "name": "CloseAuction",
      "type": "event"
    },
    {
      "anonymous": false,
      "inputs": [],
      "name": "StartAuction",
      "type": "event"
    },
    {
      "anonymous": false,
      "inputs": [
        {
          "indexed": true,
          "internalType": "address",
          "name": "bidder",
          "type": "address"
        },
        {
          "indexed": false,
          "internalType": "uint256",
          "name": "amount",
          "type": "uint256"
        }
      ],
      "name": "Withdraw",
      "type": "event"
    },
    {
      "inputs": [],
      "name": "auctionEndTime",
      "outputs": [
        {
          "internalType": "uint256",
          "name": "",
          "type": "uint256"
        }
      ],
      "stateMutability": "view",
      "type": "function"
    },
    {
      "inputs": [
        {
          "internalType": "address",
          "name": "",
          "type": "address"
        }
      ],
      "name": "bids",
      "outputs": [
        {
          "internalType": "uint256",
          "name": "",
          "type": "uint256"
        }
      ],
      "stateMutability": "view",
      "type": "function"
    },
    {
      "inputs": [],
      "name": "ended",
      "outputs": [
        {
          "internalType": "bool",
          "name": "",
          "type": "bool"
        }
      ],
      "stateMutability": "view",
      "type": "function"
    },
    {
      "inputs": [],
      "name": "highestBid",
      "outputs": [
        {
          "internalType": "uint256",
          "name": "",
          "type": "uint256"
        }
      ],
      "stateMutability": "view",
      "type": "function"
    },
    {
      "inputs": [],
      "name": "highestBidder",
      "outputs": [
        {
          "internalType": "address",
          "name": "",
          "type": "address"
        }
      ],
      "stateMutability": "view",
      "type": "function"
    },
    {
      "inputs": [],
      "name": "nft",
      "outputs": [
        {
          "internalType": "contract IERC721",
          "name": "",
          "type": "address"
        }
      ],
      "stateMutability": "view",
      "type": "function"
    },
    {
      "inputs": [],
      "name": "nftId",
      "outputs": [
        {
          "internalType": "uint256",
          "name": "",
          "type": "uint256"
        }
      ],
      "stateMutability": "view",
      "type": "function"
    },
    {
      "inputs": [],
      "name": "seller",
      "outputs": [
        {
          "internalType": "address payable",
          "name": "",
          "type": "address"
        }
      ],
      "stateMutability": "view",
      "type": "function"
    },
    {
      "inputs": [],
      "name": "started",
      "outputs": [
        {
          "internalType": "bool",
          "name": "",
          "type": "bool"
        }
      ],
      "stateMutability": "view",
      "type": "function"
    },
    {
      "inputs": [],
      "name": "startAuction",
      "outputs": [],
      "stateMutability": "nonpayable",
      "type": "function"
    },
    {
      "inputs": [],
      "name": "bid",
      "outputs": [],
      "stateMutability": "payable",
      "type": "function"
    },
    {
      "inputs": [],
      "name": "withdraw",
      "outputs": [],
      "stateMutability": "nonpayable",
      "type": "function"
    },
    {
      "inputs": [],
      "name": "closeAuction",
      "outputs": [],
      "stateMutability": "payable",
      "type": "function"
    },
    {
      "inputs": [],
      "name": "getEndTime",
      "outputs": [
        {
          "internalType": "uint256",
          "name": "",
          "type": "uint256"
        }
      ],
      "stateMutability": "view",
      "type": "function"
    },
    {
      "inputs": [],
      "name": "getHighestBidder",
      "outputs": [
        {
          "internalType": "address",
          "name": "",
          "type": "address"
        }
      ],
      "stateMutability": "view",
      "type": "function"
    }
  ],
  "bytecode": "0x60e06040523480156200001157600080fd5b50604051620017ea380380620017ea833981810160405281019062000037919062000171565b8373ffffffffffffffffffffffffffffffffffffffff1660808173ffffffffffffffffffffffffffffffffffffffff16815250508260a081815250503373ffffffffffffffffffffffffffffffffffffffff1660c08173ffffffffffffffffffffffffffffffffffffffff1681525050816001819055508042620000bc919062000212565b600381905550505050506200024d565b600080fd5b600073ffffffffffffffffffffffffffffffffffffffff82169050919050565b6000620000fe82620000d1565b9050919050565b6200011081620000f1565b81146200011c57600080fd5b50565b600081519050620001308162000105565b92915050565b6000819050919050565b6200014b8162000136565b81146200015757600080fd5b50565b6000815190506200016b8162000140565b92915050565b600080600080608085870312156200018e576200018d620000cc565b5b60006200019e878288016200011f565b9450506020620001b1878288016200015a565b9350506040620001c4878288016200015a565b9250506060620001d7878288016200015a565b91505092959194509250565b7f4e487b7100000000000000000000000000000000000000000000000000000000600052601160045260246000fd5b60006200021f8262000136565b91506200022c8362000136565b9250828201905080821115620002475762000246620001e3565b5b92915050565b60805160a05160c051611520620002ca600039600081816103440152818161037b01528181610844015281816108ef01528181610b4e0152610c800152600081816107d30152818161091001528181610ca20152610d67015260008181610773015281816108b201528181610b0c0152610c4401526115206000f3fe6080604052600436106100e75760003560e01c8063439f5ac21161008a5780636b64c769116100595780636b64c7691461028157806391f9015714610298578063c6bc5182146102c3578063d57bde79146102ee576100e7565b8063439f5ac2146101c357806347ccca02146101ee5780634b449cba1461021957806362ea82db14610244576100e7565b80631998aeef116100c65780631998aeef1461016d5780631f2698ab14610177578063378252f2146101a25780633ccfd60b146101ac576100e7565b80623495a4146100ec57806308551a531461011757806312fa6feb14610142575b600080fd5b3480156100f857600080fd5b50610101610319565b60405161010e9190610dd0565b60405180910390f35b34801561012357600080fd5b5061012c610342565b6040516101399190610e0c565b60405180910390f35b34801561014e57600080fd5b50610157610366565b6040516101649190610e42565b60405180910390f35b610175610379565b005b34801561018357600080fd5b5061018c610644565b6040516101999190610e42565b60405180910390f35b6101aa610655565b005b3480156101b857600080fd5b506101c16109df565b005b3480156101cf57600080fd5b506101d8610b00565b6040516101e59190610e76565b60405180910390f35b3480156101fa57600080fd5b50610203610b0a565b6040516102109190610ef0565b60405180910390f35b34801561022557600080fd5b5061022e610b2e565b60405161023b9190610e76565b60405180910390f35b34801561025057600080fd5b5061026b60048036038101906102669190610f3c565b610b34565b6040516102789190610e76565b60405180910390f35b34801561028d57600080fd5b50610296610b4c565b005b3480156102a457600080fd5b506102ad610d3f565b6040516102ba9190610dd0565b60405180910390f35b3480156102cf57600080fd5b506102d8610d65565b6040516102e59190610e76565b60405180910390f35b3480156102fa57600080fd5b50610303610d89565b6040516103109190610e76565b60405180910390f35b60008060029054906101000a900473ffffffffffffffffffffffffffffffffffffffff16905090565b7f000000000000000000000000000000000000000000000000000000000000000081565b600060019054906101000a900460ff1681565b7f000000000000000000000000000000000000000000000000000000000000000073ffffffffffffffffffffffffffffffffffffffff163373ffffffffffffffffffffffffffffffffffffffff1603610407576040517f08c379a00000000000000000000000000000000000000000000000000000000081526004016103fe90610fec565b60405180910390fd5b600354421061044b576040517f08c379a00000000000000000000000000000000000000000000000000000000081526004016104429061107e565b60405180910390fd5b60008054906101000a900460ff16610498576040517f08c379a000000000000000000000000000000000000000000000000000000000815260040161048f906110ea565b60405180910390fd5b60015434116104dc576040517f08c379a00000000000000000000000000000000000000000000000000000000081526004016104d39061117c565b60405180910390fd5b600073ffffffffffffffffffffffffffffffffffffffff16600060029054906101000a900473ffffffffffffffffffffffffffffffffffffffff1673ffffffffffffffffffffffffffffffffffffffff16146105ac57600154600260008060029054906101000a900473ffffffffffffffffffffffffffffffffffffffff1673ffffffffffffffffffffffffffffffffffffffff1673ffffffffffffffffffffffffffffffffffffffff16815260200190815260200160002060008282546105a491906111cb565b925050819055505b3460018190555033600060026101000a81548173ffffffffffffffffffffffffffffffffffffffff021916908373ffffffffffffffffffffffffffffffffffffffff1602179055503373ffffffffffffffffffffffffffffffffffffffff167fe684a55f31b79eca403df938249029212a5925ec6be8012e099b45bc1019e5d23460405161063a9190610e76565b60405180910390a2565b60008054906101000a900460ff1681565b6003544211610699576040517f08c379a000000000000000000000000000000000000000000000000000000000815260040161069090611271565b60405180910390fd5b60008054906101000a900460ff166106e6576040517f08c379a00000000000000000000000000000000000000000000000000000000081526004016106dd906112dd565b60405180910390fd5b600060019054906101000a900460ff161561070057600080fd5b6001600060016101000a81548160ff021916908315150217905550600073ffffffffffffffffffffffffffffffffffffffff16600060029054906101000a900473ffffffffffffffffffffffffffffffffffffffff1673ffffffffffffffffffffffffffffffffffffffff16146108b0577f000000000000000000000000000000000000000000000000000000000000000073ffffffffffffffffffffffffffffffffffffffff166323b872dd30600060029054906101000a900473ffffffffffffffffffffffffffffffffffffffff167f00000000000000000000000000000000000000000000000000000000000000006040518463ffffffff1660e01b8152600401610810939291906112fd565b600060405180830381600087803b15801561082a57600080fd5b505af115801561083e573d6000803e3d6000fd5b505050507f000000000000000000000000000000000000000000000000000000000000000073ffffffffffffffffffffffffffffffffffffffff166108fc6001549081150290604051600060405180830381858888f193505050501580156108aa573d6000803e3d6000fd5b506109dd565b7f000000000000000000000000000000000000000000000000000000000000000073ffffffffffffffffffffffffffffffffffffffff166323b872dd307f00000000000000000000000000000000000000000000000000000000000000007f00000000000000000000000000000000000000000000000000000000000000006040518463ffffffff1660e01b815260040161094d93929190611355565b600060405180830381600087803b15801561096757600080fd5b505af115801561097b573d6000803e3d6000fd5b505050507fd19aa7d583cd7c1ef3f8c032ab1bbf5202b1779f825679445283b30e40b07032600060029054906101000a900473ffffffffffffffffffffffffffffffffffffffff166001546040516109d492919061138c565b60405180910390a15b565b6000600260003373ffffffffffffffffffffffffffffffffffffffff1673ffffffffffffffffffffffffffffffffffffffff1681526020019081526020016000205490506000600260003373ffffffffffffffffffffffffffffffffffffffff1673ffffffffffffffffffffffffffffffffffffffff168152602001908152602001600020819055503373ffffffffffffffffffffffffffffffffffffffff166108fc829081150290604051600060405180830381858888f19350505050158015610aae573d6000803e3d6000fd5b503373ffffffffffffffffffffffffffffffffffffffff167f884edad9ce6fa2440d8a54cc123490eb96d2768479d49ff9c7366125a942436482604051610af59190610e76565b60405180910390a250565b6000600354905090565b7f000000000000000000000000000000000000000000000000000000000000000081565b60035481565b60026020528060005260406000206000915090505481565b7f000000000000000000000000000000000000000000000000000000000000000073ffffffffffffffffffffffffffffffffffffffff163373ffffffffffffffffffffffffffffffffffffffff1614610bda576040517f08c379a0000000000000000000000000000000000000000000000000000000008152600401610bd190611401565b60405180910390fd5b60008054906101000a900460ff1615610c28576040517f08c379a0000000000000000000000000000000000000000000000000000000008152600401610c1f90611493565b60405180910390fd5b60016000806101000a81548160ff0219169083151502179055507f000000000000000000000000000000000000000000000000000000000000000073ffffffffffffffffffffffffffffffffffffffff166323b872dd7f0000000000000000000000000000000000000000000000000000000000000000307f00000000000000000000000000000000000000000000000000000000000000006040518463ffffffff1660e01b8152600401610cdf939291906114b3565b600060405180830381600087803b158015610cf957600080fd5b505af1158015610d0d573d6000803e3d6000fd5b505050507fd295ebf0a48a9a43d600a6ecb8626baa711d5750dec13a08145013aa30cb92ea60405160405180910390a1565b600060029054906101000a900473ffffffffffffffffffffffffffffffffffffffff1681565b7f000000000000000000000000000000000000000000000000000000000000000081565b60015481565b600073ffffffffffffffffffffffffffffffffffffffff82169050919050565b6000610dba82610d8f565b9050919050565b610dca81610daf565b82525050565b6000602082019050610de56000830184610dc1565b92915050565b6000610df682610d8f565b9050919050565b610e0681610deb565b82525050565b6000602082019050610e216000830184610dfd565b92915050565b60008115159050919050565b610e3c81610e27565b82525050565b6000602082019050610e576000830184610e33565b92915050565b6000819050919050565b610e7081610e5d565b82525050565b6000602082019050610e8b6000830184610e67565b92915050565b6000819050919050565b6000610eb6610eb1610eac84610d8f565b610e91565b610d8f565b9050919050565b6000610ec882610e9b565b9050919050565b6000610eda82610ebd565b9050919050565b610eea81610ecf565b82525050565b6000602082019050610f056000830184610ee1565b92915050565b600080fd5b610f1981610daf565b8114610f2457600080fd5b50565b600081359050610f3681610f10565b92915050565b600060208284031215610f5257610f51610f0b565b5b6000610f6084828501610f27565b91505092915050565b600082825260208201905092915050565b7f546865206f776e65722063616e6e6f7420626964206f6e207468656972206f7760008201527f6e2041756374696f6e2e00000000000000000000000000000000000000000000602082015250565b6000610fd6602a83610f69565b9150610fe182610f7a565b604082019050919050565b6000602082019050818103600083015261100581610fc9565b9050919050565b7f596f752061726520746f6f206c6174652e205468652061756374696f6e20697360008201527f206f7665722e0000000000000000000000000000000000000000000000000000602082015250565b6000611068602683610f69565b91506110738261100c565b604082019050919050565b600060208201905081810360008301526110978161105b565b9050919050565b7f5468652061756374696f6e20686173206e6f7420737461727465642e00000000600082015250565b60006110d4601c83610f69565b91506110df8261109e565b602082019050919050565b60006020820190508181036000830152611103816110c7565b9050919050565b7f5468697320626964206973206c6f776572207468616e2074686520637572726560008201527f6e742068696768657374206269642e0000000000000000000000000000000000602082015250565b6000611166602f83610f69565b91506111718261110a565b604082019050919050565b6000602082019050818103600083015261119581611159565b9050919050565b7f4e487b7100000000000000000000000000000000000000000000000000000000600052601160045260246000fd5b60006111d682610e5d565b91506111e183610e5d565b92508282019050808211156111f9576111f861119c565b5b92915050565b7f596f752063616e6e6f7420776974686472617720796f75722062696420756e7460008201527f696c207468652061756374696f6e2068617320656e6465640000000000000000602082015250565b600061125b603883610f69565b9150611266826111ff565b604082019050919050565b6000602082019050818103600083015261128a8161124e565b9050919050565b7f5468652061756374696f6e206973206e6f742073746172746564207965740000600082015250565b60006112c7601e83610f69565b91506112d282611291565b602082019050919050565b600060208201905081810360008301526112f6816112ba565b9050919050565b60006060820190506113126000830186610dc1565b61131f6020830185610dc1565b61132c6040830184610e67565b949350505050565b600061133f82610ebd565b9050919050565b61134f81611334565b82525050565b600060608201905061136a6000830186610dc1565b6113776020830185611346565b6113846040830184610e67565b949350505050565b60006040820190506113a16000830185610dc1565b6113ae6020830184610e67565b9392505050565b7f596f7520617265206e6f74207468652073656c6c65722e000000000000000000600082015250565b60006113eb601783610f69565b91506113f6826113b5565b602082019050919050565b6000602082019050818103600083015261141a816113de565b9050919050565b7f5468652061756374696f6e2068617320616c7265616479206265656e2073746160008201527f727465642e000000000000000000000000000000000000000000000000000000602082015250565b600061147d602583610f69565b915061148882611421565b604082019050919050565b600060208201905081810360008301526114ac81611470565b9050919050565b60006060820190506114c86000830186611346565b6114d56020830185610dc1565b6114e26040830184610e67565b94935050505056fea26469706673582212204d881baba01f02223906ace6a0dd268b0108f89b91715e746bcd53c32282da1364736f6c63430008110033",
  "immutableReferences": {
    "34": [
      {
        "length": 32,
        "start": 1907
      },
      {
        "length": 32,
        "start": 2226
      },
      {
        "length": 32,
        "start": 2828
      },
      {
        "length": 32,
        "start": 3140
      }
    ],
    "36": [
      {
        "length": 32,
        "start": 2003
      },
      {
        "length": 32,
        "start": 2320
      },
      {
        "length": 32,
        "start": 3234
      },
      {
        "length": 32,
        "start": 3431
      }
    ],
    "79": [
      {
        "length": 32,
        "start": 836
      },
      {
        "length": 32,
        "start": 891
      },
      {
        "length": 32,
        "start": 2116
      },
      {
        "length": 32,
        "start": 2287
      },
      {
        "length": 32,
        "start": 2894
      },
      {
        "length": 32,
        "start": 3200
      }
    ]
  },
  "source": "// SPDX-License-Identifier: MIT\r\npragma solidity >=0.8.10;\r\n\r\ninterface IERC721 {\r\n    function transferFrom(address from, address to, uint256 nftId) external;\r\n}\r\n\r\ncontract Auction {\r\n    event StartAuction();\r\n    event Bid(address indexed sender, uint256 amount);\r\n    event Withdraw(address indexed bidder, uint256 amount);\r\n    event CloseAuction(address highestBidder, uint256 highestBid);\r\n\r\n    //we're storing the NFT contract in our contract\r\n    IERC721 public immutable nft;\r\n    //this is the ID of the NFT\r\n    uint256 public immutable nftId;\r\n\r\n    constructor(\r\n        address _nft,\r\n        uint256 _nftId,\r\n        uint256 _startingBid,\r\n        uint256 _biddingTime\r\n    ) {\r\n        nft = IERC721(_nft);\r\n        nftId = _nftId;\r\n        //cast the msg.sender address as payable\r\n        seller = payable(msg.sender);\r\n        // set the current highet bid as the minimumBid to begin with\r\n        // this is address(0)\r\n        highestBid = _startingBid;\r\n\r\n        auctionEndTime = block.timestamp + _biddingTime;\r\n    }\r\n\r\n    address payable public immutable seller;\r\n    // we use a smaller uint to store a timestamp of the auction end time\r\n    //uint32 public endAt;\r\n\r\n    // we will store the state of the auction\r\n    // started set to true when the auction starts\r\n    bool public started;\r\n    //ended set to true when the auction ends\r\n    bool public ended;\r\n\r\n    address public highestBidder;\r\n    uint256 public highestBid;\r\n    mapping(address => uint256) public bids;\r\n\r\n    // we can set how long the auction lasts for\r\n    uint256 public auctionEndTime;\r\n\r\n    //the function to start the auction\r\n    function startAuction() external {\r\n        require(msg.sender == seller, \"You are not the seller.\");\r\n        // we want to make sure this function can only be called once\r\n        require(!started, \"The auction has already been started.\");\r\n        started = true;\r\n        //block.timestamp is uint256, so we need to cast it as uint32\r\n        //endAt = uint32(block.timestamp + );\r\n\r\n        // we want this contract to own the nft\r\n        nft.transferFrom(seller, address(this), nftId);\r\n\r\n        emit StartAuction();\r\n    }\r\n\r\n    function bid() external payable onlyNotOwner onlyBeforeEndTime {\r\n        require(started, \"The auction has not started.\");\r\n        //require(block.timestamp < endAt, \"The auction has ended.\");\r\n        require(\r\n            msg.value > highestBid,\r\n            \"This bid is lower than the current highest bid.\"\r\n        );\r\n\r\n        if (highestBidder != address(0)) {\r\n            bids[highestBidder] += highestBid;\r\n        }\r\n\r\n        highestBid = msg.value;\r\n        highestBidder = msg.sender;\r\n\r\n        emit Bid(msg.sender, msg.value);\r\n    }\r\n\r\n    function withdraw() external {\r\n        // get the balance for the user who called the function\r\n        uint256 bal = bids[msg.sender];\r\n        //set the balance to 0 before sending any ether (to prevent reentrancy hack)\r\n        bids[msg.sender] = 0;\r\n        // transfer the ether to the user\r\n        payable(msg.sender).transfer(bal);\r\n\r\n        emit Withdraw(msg.sender, bal);\r\n    }\r\n\r\n    // anyone can end the auction when the timestamp has surpassed endAt\r\n    // to transfer ownership of the NFT to the highest bidder\r\n    // to transfer the highestBid to the seller\r\n    function closeAuction() external payable onlyAfterEndTime {\r\n        require(started, \"The auction is not started yet\");\r\n        require(!ended);\r\n\r\n        //set ended to true to ensure this function can only be called once\r\n        ended = true;\r\n        // if someone bid on the NFT\r\n        // then transfer ownership of the nft to the highest bidder\r\n        //and transfer the ether to the seller\r\n        if (highestBidder != address(0)) {\r\n            nft.transferFrom(address(this), highestBidder, nftId);\r\n            seller.transfer(highestBid);\r\n        } else {\r\n            //if no one bid on the nft\r\n            // transfer ownership of the NFT back to the seller\r\n            nft.transferFrom(address(this), seller, nftId);\r\n\r\n            emit CloseAuction(highestBidder, highestBid);\r\n        }\r\n    }\r\n\r\n    // a modifier to prevent the owner from bidding on their own auction\r\n    modifier onlyNotOwner() {\r\n        require(\r\n            msg.sender != seller,\r\n            \"The owner cannot bid on their own Auction.\"\r\n        );\r\n        _;\r\n    }\r\n\r\n    // a modifier to prevent someone from bidding on a closed auction\r\n    modifier onlyBeforeEndTime() {\r\n        require(\r\n            block.timestamp < auctionEndTime,\r\n            \"You are too late. The auction is over.\"\r\n        );\r\n        _;\r\n    }\r\n\r\n    // a modifier to ensure a function is called only after the auction has ended\r\n    modifier onlyAfterEndTime() {\r\n        require(\r\n            block.timestamp > auctionEndTime,\r\n            \"You cannot withdraw your bid until the auction has ended\"\r\n        );\r\n        _;\r\n    }\r\n\r\n    function getEndTime() public view returns (uint256) {\r\n        return auctionEndTime;\r\n    }\r\n\r\n    function getHighestBidder() public view returns (address) {\r\n        return highestBidder;\r\n    }\r\n\r\n    // function minimumBidAmount() view public returns(uint){\r\n    //     return _startingBid;\r\n    // }\r\n}\r\n",
  "sourcePath": "C:\\Users\\malco\\Desktop\\FinTech\\Project 3\\trufle-test\\contracts\\auction.sol",
  "compiler": {
    "name": "solc",
    "version": "0.8.17+commit.8df45f5f.Emscripten.clang"
  },
  "schemaVersion": "3.4.11",
  "updatedAt": "2022-11-28T03:13:06.277Z",
  "devdoc": {
    "kind": "dev",
    "methods": {},
    "version": 1
  },
  "userdoc": {
    "kind": "user",
    "methods": {},
    "version": 1
  }
}