{
  "contractName": "ERC721",
  "abi": [
    {
      "anonymous": false,
      "inputs": [
        {
          "indexed": true,
          "internalType": "address",
          "name": "owner",
          "type": "address"
        },
        {
          "indexed": true,
          "internalType": "address",
          "name": "spender",
          "type": "address"
        },
        {
          "indexed": true,
          "internalType": "uint256",
          "name": "id",
          "type": "uint256"
        }
      ],
      "name": "Approval",
      "type": "event"
    },
    {
      "anonymous": false,
      "inputs": [
        {
          "indexed": true,
          "internalType": "address",
          "name": "owner",
          "type": "address"
        },
        {
          "indexed": true,
          "internalType": "address",
          "name": "operator",
          "type": "address"
        },
        {
          "indexed": false,
          "internalType": "bool",
          "name": "approved",
          "type": "bool"
        }
      ],
      "name": "ApprovalForAll",
      "type": "event"
    },
    {
      "anonymous": false,
      "inputs": [
        {
          "indexed": true,
          "internalType": "address",
          "name": "from",
          "type": "address"
        },
        {
          "indexed": true,
          "internalType": "address",
          "name": "to",
          "type": "address"
        },
        {
          "indexed": true,
          "internalType": "uint256",
          "name": "id",
          "type": "uint256"
        }
      ],
      "name": "Transfer",
      "type": "event"
    },
    {
      "inputs": [
        {
          "internalType": "address",
          "name": "",
          "type": "address"
        },
        {
          "internalType": "address",
          "name": "",
          "type": "address"
        }
      ],
      "name": "isApprovedForAll",
      "outputs": [
        {
          "internalType": "bool",
          "name": "",
          "type": "bool"
        }
      ],
      "stateMutability": "view",
      "type": "function"
    },
    {
      "inputs": [
        {
          "internalType": "bytes4",
          "name": "interfaceId",
          "type": "bytes4"
        }
      ],
      "name": "supportsInterface",
      "outputs": [
        {
          "internalType": "bool",
          "name": "",
          "type": "bool"
        }
      ],
      "stateMutability": "pure",
      "type": "function"
    },
    {
      "inputs": [
        {
          "internalType": "uint256",
          "name": "id",
          "type": "uint256"
        }
      ],
      "name": "ownerOf",
      "outputs": [
        {
          "internalType": "address",
          "name": "owner",
          "type": "address"
        }
      ],
      "stateMutability": "view",
      "type": "function"
    },
    {
      "inputs": [
        {
          "internalType": "address",
          "name": "owner",
          "type": "address"
        }
      ],
      "name": "balanceOf",
      "outputs": [
        {
          "internalType": "uint256",
          "name": "",
          "type": "uint256"
        }
      ],
      "stateMutability": "view",
      "type": "function"
    },
    {
      "inputs": [
        {
          "internalType": "address",
          "name": "operator",
          "type": "address"
        },
        {
          "internalType": "bool",
          "name": "approved",
          "type": "bool"
        }
      ],
      "name": "setApprovalForAll",
      "outputs": [],
      "stateMutability": "nonpayable",
      "type": "function"
    },
    {
      "inputs": [
        {
          "internalType": "address",
          "name": "spender",
          "type": "address"
        },
        {
          "internalType": "uint256",
          "name": "id",
          "type": "uint256"
        }
      ],
      "name": "approve",
      "outputs": [],
      "stateMutability": "nonpayable",
      "type": "function"
    },
    {
      "inputs": [
        {
          "internalType": "uint256",
          "name": "id",
          "type": "uint256"
        }
      ],
      "name": "getApproved",
      "outputs": [
        {
          "internalType": "address",
          "name": "",
          "type": "address"
        }
      ],
      "stateMutability": "view",
      "type": "function"
    },
    {
      "inputs": [
        {
          "internalType": "address",
          "name": "from",
          "type": "address"
        },
        {
          "internalType": "address",
          "name": "to",
          "type": "address"
        },
        {
          "internalType": "uint256",
          "name": "id",
          "type": "uint256"
        }
      ],
      "name": "transferFrom",
      "outputs": [],
      "stateMutability": "nonpayable",
      "type": "function"
    },
    {
      "inputs": [
        {
          "internalType": "address",
          "name": "from",
          "type": "address"
        },
        {
          "internalType": "address",
          "name": "to",
          "type": "address"
        },
        {
          "internalType": "uint256",
          "name": "id",
          "type": "uint256"
        }
      ],
      "name": "safeTransferFrom",
      "outputs": [],
      "stateMutability": "nonpayable",
      "type": "function"
    },
    {
      "inputs": [
        {
          "internalType": "address",
          "name": "from",
          "type": "address"
        },
        {
          "internalType": "address",
          "name": "to",
          "type": "address"
        },
        {
          "internalType": "uint256",
          "name": "id",
          "type": "uint256"
        },
        {
          "internalType": "bytes",
          "name": "data",
          "type": "bytes"
        }
      ],
      "name": "safeTransferFrom",
      "outputs": [],
      "stateMutability": "nonpayable",
      "type": "function"
    }
  ],
  "bytecode": "0x608060405234801561001057600080fd5b506117d8806100206000396000f3fe608060405234801561001057600080fd5b506004361061009e5760003560e01c80636352211e116100665780636352211e1461015757806370a0823114610187578063a22cb465146101b7578063b88d4fde146101d3578063e985e9c5146101ef5761009e565b806301ffc9a7146100a3578063081812fc146100d3578063095ea7b31461010357806323b872dd1461011f57806342842e0e1461013b575b600080fd5b6100bd60048036038101906100b89190610f3a565b61021f565b6040516100ca9190610f82565b60405180910390f35b6100ed60048036038101906100e89190610fd3565b6102f1565b6040516100fa9190611041565b60405180910390f35b61011d60048036038101906101189190611088565b6103ce565b005b610139600480360381019061013491906110c8565b6105b6565b005b610155600480360381019061015091906110c8565b6108a0565b005b610171600480360381019061016c9190610fd3565b6109d8565b60405161017e9190611041565b60405180910390f35b6101a1600480360381019061019c919061111b565b610a83565b6040516101ae9190611157565b60405180910390f35b6101d160048036038101906101cc919061119e565b610b3a565b005b6101ed60048036038101906101e89190611243565b610c37565b005b610209600480360381019061020491906112cb565b610d75565b6040516102169190610f82565b60405180910390f35b60007f80ac58cd000000000000000000000000000000000000000000000000000000007bffffffffffffffffffffffffffffffffffffffffffffffffffffffff1916827bffffffffffffffffffffffffffffffffffffffffffffffffffffffff191614806102ea57507f01ffc9a7000000000000000000000000000000000000000000000000000000007bffffffffffffffffffffffffffffffffffffffffffffffffffffffff1916827bffffffffffffffffffffffffffffffffffffffffffffffffffffffff1916145b9050919050565b60008073ffffffffffffffffffffffffffffffffffffffff1660008084815260200190815260200160002060009054906101000a900473ffffffffffffffffffffffffffffffffffffffff1673ffffffffffffffffffffffffffffffffffffffff1603610393576040517f08c379a000000000000000000000000000000000000000000000000000000000815260040161038a90611368565b60405180910390fd5b6002600083815260200190815260200160002060009054906101000a900473ffffffffffffffffffffffffffffffffffffffff169050919050565b600080600083815260200190815260200160002060009054906101000a900473ffffffffffffffffffffffffffffffffffffffff1690508073ffffffffffffffffffffffffffffffffffffffff163373ffffffffffffffffffffffffffffffffffffffff1614806104c55750600360008273ffffffffffffffffffffffffffffffffffffffff1673ffffffffffffffffffffffffffffffffffffffff16815260200190815260200160002060003373ffffffffffffffffffffffffffffffffffffffff1673ffffffffffffffffffffffffffffffffffffffff16815260200190815260200160002060009054906101000a900460ff165b610504576040517f08c379a00000000000000000000000000000000000000000000000000000000081526004016104fb906113d4565b60405180910390fd5b826002600084815260200190815260200160002060006101000a81548173ffffffffffffffffffffffffffffffffffffffff021916908373ffffffffffffffffffffffffffffffffffffffff160217905550818373ffffffffffffffffffffffffffffffffffffffff168273ffffffffffffffffffffffffffffffffffffffff167f8c5be1e5ebec7d5bd14f71427d1e84f3dd0314c0f7b2291e5b200ac8c7c3b92560405160405180910390a4505050565b60008082815260200190815260200160002060009054906101000a900473ffffffffffffffffffffffffffffffffffffffff1673ffffffffffffffffffffffffffffffffffffffff168373ffffffffffffffffffffffffffffffffffffffff1614610656576040517f08c379a000000000000000000000000000000000000000000000000000000000815260040161064d90611440565b60405180910390fd5b600073ffffffffffffffffffffffffffffffffffffffff168273ffffffffffffffffffffffffffffffffffffffff16036106c5576040517f08c379a00000000000000000000000000000000000000000000000000000000081526004016106bc906114ac565b60405180910390fd5b6106d0833383610da4565b61070f576040517f08c379a0000000000000000000000000000000000000000000000000000000008152600401610706906113d4565b60405180910390fd5b600160008473ffffffffffffffffffffffffffffffffffffffff1673ffffffffffffffffffffffffffffffffffffffff168152602001908152602001600020600081548092919061075f906114fb565b9190505550600160008373ffffffffffffffffffffffffffffffffffffffff1673ffffffffffffffffffffffffffffffffffffffff16815260200190815260200160002060008154809291906107b490611524565b91905055508160008083815260200190815260200160002060006101000a81548173ffffffffffffffffffffffffffffffffffffffff021916908373ffffffffffffffffffffffffffffffffffffffff1602179055506002600082815260200190815260200160002060006101000a81549073ffffffffffffffffffffffffffffffffffffffff0219169055808273ffffffffffffffffffffffffffffffffffffffff168473ffffffffffffffffffffffffffffffffffffffff167fddf252ad1be2c89b69c2b068fc378daa952ba7f163c4a11628f55a4df523b3ef60405160405180910390a4505050565b6108ab8383836105b6565b60008273ffffffffffffffffffffffffffffffffffffffff163b1480610994575063150b7a0260e01b7bffffffffffffffffffffffffffffffffffffffffffffffffffffffff19168273ffffffffffffffffffffffffffffffffffffffff1663150b7a023386856040518463ffffffff1660e01b8152600401610930939291906115a3565b6020604051808303816000875af115801561094f573d6000803e3d6000fd5b505050506040513d601f19601f820116820180604052508101906109739190611602565b7bffffffffffffffffffffffffffffffffffffffffffffffffffffffff1916145b6109d3576040517f08c379a00000000000000000000000000000000000000000000000000000000081526004016109ca9061167b565b60405180910390fd5b505050565b600080600083815260200190815260200160002060009054906101000a900473ffffffffffffffffffffffffffffffffffffffff169050600073ffffffffffffffffffffffffffffffffffffffff168173ffffffffffffffffffffffffffffffffffffffff1603610a7e576040517f08c379a0000000000000000000000000000000000000000000000000000000008152600401610a7590611368565b60405180910390fd5b919050565b60008073ffffffffffffffffffffffffffffffffffffffff168273ffffffffffffffffffffffffffffffffffffffff1603610af3576040517f08c379a0000000000000000000000000000000000000000000000000000000008152600401610aea906116e7565b60405180910390fd5b600160008373ffffffffffffffffffffffffffffffffffffffff1673ffffffffffffffffffffffffffffffffffffffff168152602001908152602001600020549050919050565b80600360003373ffffffffffffffffffffffffffffffffffffffff1673ffffffffffffffffffffffffffffffffffffffff16815260200190815260200160002060008473ffffffffffffffffffffffffffffffffffffffff1673ffffffffffffffffffffffffffffffffffffffff16815260200190815260200160002060006101000a81548160ff0219169083151502179055508173ffffffffffffffffffffffffffffffffffffffff163373ffffffffffffffffffffffffffffffffffffffff167f17307eab39ab6107e8899845ad3d59bd9653f200f220920489ca2b5937696c3183604051610c2b9190610f82565b60405180910390a35050565b610c428585856105b6565b60008473ffffffffffffffffffffffffffffffffffffffff163b1480610d2f575063150b7a0260e01b7bffffffffffffffffffffffffffffffffffffffffffffffffffffffff19168473ffffffffffffffffffffffffffffffffffffffff1663150b7a0233888787876040518663ffffffff1660e01b8152600401610ccb959493929190611754565b6020604051808303816000875af1158015610cea573d6000803e3d6000fd5b505050506040513d601f19601f82011682018060405250810190610d0e9190611602565b7bffffffffffffffffffffffffffffffffffffffffffffffffffffffff1916145b610d6e576040517f08c379a0000000000000000000000000000000000000000000000000000000008152600401610d659061167b565b60405180910390fd5b5050505050565b60036020528160005260406000206020528060005260406000206000915091509054906101000a900460ff1681565b60008373ffffffffffffffffffffffffffffffffffffffff168373ffffffffffffffffffffffffffffffffffffffff161480610e665750600360008573ffffffffffffffffffffffffffffffffffffffff1673ffffffffffffffffffffffffffffffffffffffff16815260200190815260200160002060008473ffffffffffffffffffffffffffffffffffffffff1673ffffffffffffffffffffffffffffffffffffffff16815260200190815260200160002060009054906101000a900460ff165b80610ecf57506002600083815260200190815260200160002060009054906101000a900473ffffffffffffffffffffffffffffffffffffffff1673ffffffffffffffffffffffffffffffffffffffff168373ffffffffffffffffffffffffffffffffffffffff16145b90509392505050565b600080fd5b600080fd5b60007fffffffff0000000000000000000000000000000000000000000000000000000082169050919050565b610f1781610ee2565b8114610f2257600080fd5b50565b600081359050610f3481610f0e565b92915050565b600060208284031215610f5057610f4f610ed8565b5b6000610f5e84828501610f25565b91505092915050565b60008115159050919050565b610f7c81610f67565b82525050565b6000602082019050610f976000830184610f73565b92915050565b6000819050919050565b610fb081610f9d565b8114610fbb57600080fd5b50565b600081359050610fcd81610fa7565b92915050565b600060208284031215610fe957610fe8610ed8565b5b6000610ff784828501610fbe565b91505092915050565b600073ffffffffffffffffffffffffffffffffffffffff82169050919050565b600061102b82611000565b9050919050565b61103b81611020565b82525050565b60006020820190506110566000830184611032565b92915050565b61106581611020565b811461107057600080fd5b50565b6000813590506110828161105c565b92915050565b6000806040838503121561109f5761109e610ed8565b5b60006110ad85828601611073565b92505060206110be85828601610fbe565b9150509250929050565b6000806000606084860312156110e1576110e0610ed8565b5b60006110ef86828701611073565b935050602061110086828701611073565b925050604061111186828701610fbe565b9150509250925092565b60006020828403121561113157611130610ed8565b5b600061113f84828501611073565b91505092915050565b61115181610f9d565b82525050565b600060208201905061116c6000830184611148565b92915050565b61117b81610f67565b811461118657600080fd5b50565b60008135905061119881611172565b92915050565b600080604083850312156111b5576111b4610ed8565b5b60006111c385828601611073565b92505060206111d485828601611189565b9150509250929050565b600080fd5b600080fd5b600080fd5b60008083601f840112611203576112026111de565b5b8235905067ffffffffffffffff8111156112205761121f6111e3565b5b60208301915083600182028301111561123c5761123b6111e8565b5b9250929050565b60008060008060006080868803121561125f5761125e610ed8565b5b600061126d88828901611073565b955050602061127e88828901611073565b945050604061128f88828901610fbe565b935050606086013567ffffffffffffffff8111156112b0576112af610edd565b5b6112bc888289016111ed565b92509250509295509295909350565b600080604083850312156112e2576112e1610ed8565b5b60006112f085828601611073565b925050602061130185828601611073565b9150509250929050565b600082825260208201905092915050565b7f746f6b656e20646f65736e277420657869737400000000000000000000000000600082015250565b600061135260138361130b565b915061135d8261131c565b602082019050919050565b6000602082019050818103600083015261138181611345565b9050919050565b7f6e6f7420617574686f72697a6564000000000000000000000000000000000000600082015250565b60006113be600e8361130b565b91506113c982611388565b602082019050919050565b600060208201905081810360008301526113ed816113b1565b9050919050565b7f66726f6d20213d206f776e657200000000000000000000000000000000000000600082015250565b600061142a600d8361130b565b9150611435826113f4565b602082019050919050565b600060208201905081810360008301526114598161141d565b9050919050565b7f7472616e7366657220746f207a65726f20616464726573730000000000000000600082015250565b600061149660188361130b565b91506114a182611460565b602082019050919050565b600060208201905081810360008301526114c581611489565b9050919050565b7f4e487b7100000000000000000000000000000000000000000000000000000000600052601160045260246000fd5b600061150682610f9d565b915060008203611519576115186114cc565b5b600182039050919050565b600061152f82610f9d565b91507fffffffffffffffffffffffffffffffffffffffffffffffffffffffffffffffff8203611561576115606114cc565b5b600182019050919050565b600082825260208201905092915050565b50565b600061158d60008361156c565b91506115988261157d565b600082019050919050565b60006080820190506115b86000830186611032565b6115c56020830185611032565b6115d26040830184611148565b81810360608301526115e381611580565b9050949350505050565b6000815190506115fc81610f0e565b92915050565b60006020828403121561161857611617610ed8565b5b6000611626848285016115ed565b91505092915050565b7f756e7361666520726563697069656e7400000000000000000000000000000000600082015250565b600061166560108361130b565b91506116708261162f565b602082019050919050565b6000602082019050818103600083015261169481611658565b9050919050565b7f6f776e6572203d207a65726f2061646472657373000000000000000000000000600082015250565b60006116d160148361130b565b91506116dc8261169b565b602082019050919050565b60006020820190508181036000830152611700816116c4565b9050919050565b82818337600083830152505050565b6000601f19601f8301169050919050565b6000611733838561156c565b9350611740838584611707565b61174983611716565b840190509392505050565b60006080820190506117696000830188611032565b6117766020830187611032565b6117836040830186611148565b8181036060830152611796818486611727565b9050969550505050505056fea264697066735822122093af4b1f6fd6064f2b7926a9140f8b304d2fbba940342870477eb2fe1afdd08164736f6c63430008110033",
  "immutableReferences": {},
  "source": "// SPDX-License-Identifier: MIT\r\npragma solidity ^0.8.13;\r\n\r\ninterface IERC165 {\r\n    function supportsInterface(bytes4 interfaceID) external view returns (bool);\r\n}\r\n\r\ninterface IERC721 is IERC165 {\r\n    function balanceOf(address owner) external view returns (uint256 balance);\r\n\r\n    function ownerOf(uint256 tokenId) external view returns (address owner);\r\n\r\n    function safeTransferFrom(\r\n        address from,\r\n        address to,\r\n        uint256 tokenId\r\n    ) external;\r\n\r\n    function safeTransferFrom(\r\n        address from,\r\n        address to,\r\n        uint256 tokenId,\r\n        bytes calldata data\r\n    ) external;\r\n\r\n    function transferFrom(\r\n        address from,\r\n        address to,\r\n        uint256 tokenId\r\n    ) external;\r\n\r\n    function approve(address to, uint256 tokenId) external;\r\n\r\n    function getApproved(uint256 tokenId)\r\n        external\r\n        view\r\n        returns (address operator);\r\n\r\n    function setApprovalForAll(address operator, bool _approved) external;\r\n\r\n    function isApprovedForAll(address owner, address operator)\r\n        external\r\n        view\r\n        returns (bool);\r\n}\r\n\r\ninterface IERC721Receiver {\r\n    function onERC721Received(\r\n        address operator,\r\n        address from,\r\n        uint256 tokenId,\r\n        bytes calldata data\r\n    ) external returns (bytes4);\r\n}\r\n\r\ncontract ERC721 is IERC721 {\r\n    event Transfer(\r\n        address indexed from,\r\n        address indexed to,\r\n        uint256 indexed id\r\n    );\r\n    event Approval(\r\n        address indexed owner,\r\n        address indexed spender,\r\n        uint256 indexed id\r\n    );\r\n    event ApprovalForAll(\r\n        address indexed owner,\r\n        address indexed operator,\r\n        bool approved\r\n    );\r\n\r\n    // Mapping from token ID to owner address\r\n    mapping(uint256 => address) internal _ownerOf;\r\n\r\n    // Mapping owner address to token count\r\n    mapping(address => uint256) internal _balanceOf;\r\n\r\n    // Mapping from token ID to approved address\r\n    mapping(uint256 => address) internal _approvals;\r\n\r\n    // Mapping from owner to operator approvals\r\n    mapping(address => mapping(address => bool)) public isApprovedForAll;\r\n\r\n    function supportsInterface(bytes4 interfaceId)\r\n        external\r\n        pure\r\n        returns (bool)\r\n    {\r\n        return\r\n            interfaceId == type(IERC721).interfaceId ||\r\n            interfaceId == type(IERC165).interfaceId;\r\n    }\r\n\r\n    function ownerOf(uint256 id) external view returns (address owner) {\r\n        owner = _ownerOf[id];\r\n        require(owner != address(0), \"token doesn't exist\");\r\n    }\r\n\r\n    function balanceOf(address owner) external view returns (uint256) {\r\n        require(owner != address(0), \"owner = zero address\");\r\n        return _balanceOf[owner];\r\n    }\r\n\r\n    function setApprovalForAll(address operator, bool approved) external {\r\n        isApprovedForAll[msg.sender][operator] = approved;\r\n        emit ApprovalForAll(msg.sender, operator, approved);\r\n    }\r\n\r\n    function approve(address spender, uint256 id) external {\r\n        address owner = _ownerOf[id];\r\n        require(\r\n            msg.sender == owner || isApprovedForAll[owner][msg.sender],\r\n            \"not authorized\"\r\n        );\r\n\r\n        _approvals[id] = spender;\r\n\r\n        emit Approval(owner, spender, id);\r\n    }\r\n\r\n    function getApproved(uint256 id) external view returns (address) {\r\n        require(_ownerOf[id] != address(0), \"token doesn't exist\");\r\n        return _approvals[id];\r\n    }\r\n\r\n    function _isApprovedOrOwner(\r\n        address owner,\r\n        address spender,\r\n        uint256 id\r\n    ) internal view returns (bool) {\r\n        return (spender == owner ||\r\n            isApprovedForAll[owner][spender] ||\r\n            spender == _approvals[id]);\r\n    }\r\n\r\n    function transferFrom(\r\n        address from,\r\n        address to,\r\n        uint256 id\r\n    ) public {\r\n        require(from == _ownerOf[id], \"from != owner\");\r\n        require(to != address(0), \"transfer to zero address\");\r\n\r\n        require(_isApprovedOrOwner(from, msg.sender, id), \"not authorized\");\r\n\r\n        _balanceOf[from]--;\r\n        _balanceOf[to]++;\r\n        _ownerOf[id] = to;\r\n\r\n        delete _approvals[id];\r\n\r\n        emit Transfer(from, to, id);\r\n    }\r\n\r\n    function safeTransferFrom(\r\n        address from,\r\n        address to,\r\n        uint256 id\r\n    ) external {\r\n        transferFrom(from, to, id);\r\n\r\n        require(\r\n            to.code.length == 0 ||\r\n                IERC721Receiver(to).onERC721Received(\r\n                    msg.sender,\r\n                    from,\r\n                    id,\r\n                    \"\"\r\n                ) ==\r\n                IERC721Receiver.onERC721Received.selector,\r\n            \"unsafe recipient\"\r\n        );\r\n    }\r\n\r\n    function safeTransferFrom(\r\n        address from,\r\n        address to,\r\n        uint256 id,\r\n        bytes calldata data\r\n    ) external {\r\n        transferFrom(from, to, id);\r\n\r\n        require(\r\n            to.code.length == 0 ||\r\n                IERC721Receiver(to).onERC721Received(\r\n                    msg.sender,\r\n                    from,\r\n                    id,\r\n                    data\r\n                ) ==\r\n                IERC721Receiver.onERC721Received.selector,\r\n            \"unsafe recipient\"\r\n        );\r\n    }\r\n\r\n    function _mint(address to, uint256 id) internal {\r\n        require(to != address(0), \"mint to zero address\");\r\n        require(_ownerOf[id] == address(0), \"already minted\");\r\n\r\n        _balanceOf[to]++;\r\n        _ownerOf[id] = to;\r\n\r\n        emit Transfer(address(0), to, id);\r\n    }\r\n\r\n    function _burn(uint256 id) internal {\r\n        address owner = _ownerOf[id];\r\n        require(owner != address(0), \"not minted\");\r\n\r\n        _balanceOf[owner] -= 1;\r\n\r\n        delete _ownerOf[id];\r\n        delete _approvals[id];\r\n\r\n        emit Transfer(owner, address(0), id);\r\n    }\r\n}\r\n\r\ncontract MyNFT is ERC721 {\r\n    function mint(address to, uint256 id) external {\r\n        _mint(to, id);\r\n    }\r\n\r\n    function burn(uint256 id) external {\r\n        require(msg.sender == _ownerOf[id], \"not owner\");\r\n        _burn(id);\r\n    }\r\n}\r\n",
  "sourcePath": "C:\\Users\\malco\\Desktop\\FinTech\\Project 3\\trufle-test\\contracts\\nft.sol",
  "compiler": {
    "name": "solc",
    "version": "0.8.17+commit.8df45f5f.Emscripten.clang"
  },
  "schemaVersion": "3.4.11",
  "updatedAt": "2022-11-28T03:13:06.291Z",
  "devdoc": {
    "kind": "dev",
    "methods": {},
    "version": 1
  },
  "userdoc": {
    "kind": "user",
    "methods": {},
    "version": 1
  }
}